:10200000008000204D05010049050100490501003F
:1020100000000000000000000000000000000000C0
:102020000000000000000000000000004905010061
:10203000000000000000000049050100A1050100AA
:10204000490501004905010049050100C981000059
:102050004905010049050100ED480000DDB0000020
:102060004905010039F70000490501004905010053
:10207000A94400004905010049F700004905010095
:102080004905010049050100490501004905010014
:102090000000000049050100490501004905010053
:1020A00049050100490501004905010049050100F4
:1020B0000000000010B5064C2378002B07D1054B1B
:1020C000002B02D0044800E000BF0123237010BDA4
:1020D000000400200000000094AA0100044B10B589
:1020E000002B03D00349044800E000BF10BDC046E8
:1020F000000000000404002094AA010000207047A2
:1021000070477047836C002B09D01A7800201207A3
:102110001CD5D8695B69C01A18D50D4816E0C16C8A
:10212000081E13D00B00313318780022002300075B
:1021300005D50A694B6908684968121A8B41100075
:10214000002BEAD180231B069A42E6D27047C04694
:10215000FFFFFF7F10B500210D200EF09BFD10BD8D
:1021600070B505000E000D20012114000EF092FD47
:102170000EF01EFA084B290018609120074DC00090
:1021800032002858630A05F011FF002801D0200012
:1021900070BD01204042FBE7C8050020400600203A
:1021A00070B505000E000D20012114000EF072FD27
:1021B0000EF0FEF9084B290018609120074DC00071
:1021C00032002858630A05F020FF002801D02000C3
:1021D00070BD01204042FBE7C805002040060020FA
:1021E0009123094ADB0010B5D05805F0CAFC0EF067
:1021F000DFF90122054B00211860054B0D201A70F4
:102200000EF048FD10BDC04640060020C805002065
:10221000080000200300806C10B5002802D004F0F4
:1022200006FA10BDD86C002802D002F07BFFF8E758
:1022300001204042F5E7030007B5806C002809D073
:102240006B460122D91D04F030F9012805D16B46F7
:10225000D87904E0D86C002802D1012040420EBD9C
:102260006B460122D91D02F083FEEEE70300806B6E
:1022700010B5002802D004F027FB10BDDB6B002B4B
:10228000FBD0180003F0A4FBF7E710B51030FFF700
:10229000EDFF10BD0300806B10B5002802D004F0E4
:1022A000CDFB10BDDB6B002BFBD0180003F082FCD4
:1022B000F7E710B51030FFF7EDFF10BD07B56B461F
:1022C000D9710733012219001030FFF7E3FF0EBD6B
:1022D00007B56B46D9710733012219000830FFF7A3
:1022E000D9FF0EBD70B5040001210D200EF0D2FC07
:1022F000002108200EF0CEFC0A4D210028000DF030
:10230000A7FA280008490DF0A3FA0D2420000EF0CA
:10231000EDFC4142414120000EF0BCFC64200EF077
:102320008DF9F3E72410002040870100F7B53C2128
:10233000234806F07DFF234F051E0FD00126224CB7
:102340003E7033003C2202212000009607F0F8F88E
:10235000051E06D11D491E480DF070FA3D7028007B
:10236000FEBD200007F0DBF82000042108F024F86F
:102370000023184F2361184B3900636120000DF0D2
:1023800067FA200007F08CFB14480EF057F9200084
:1023900007F0C5F83100200008F00EF800232000F7
:1023A00023610F490DF054FA390020000DF050FA66
:1023B000200007F075FBFA20C0000EF03FF9CEE7D1
:1023C000C5050020C4050020100500204B87010032
:1023D000241000206587010001000100881300001F
:1023E0006987010010B5074C01000A2220000DF09A
:1023F00080FA200007F054FB200007F090F800233B
:10240000236110BD1005002010B5054C01000A2203
:1024100020000DF06EFA200007F042FB10BDC04610
:102420001005002037B50C0012F03EFE054D0200ED
:102430000B00280000940DF043FB280007F030FB50
:1024400037BDC0461005002037B50C0012F02CFE39
:10245000054D02000B00280000940DF038FB280009
:1024600007F01EFB37BDC0461005002010B5044C18
:10247000010020000DF0D0F9200007F011FB10BD85
:102480001005002010B5074C010020000DF0E0F908
:10249000200007F005FB200007F041F8002323612E
:1024A00010BDC0461005002010B5002B05D0074810
:1024B000002A04D006490DF0CBF9012010BD0549D2
:1024C0000DF0C6F90122044B1A70F6E72410002023
:1024D000798701008B870100340B002010B50D4C6B
:1024E000042120000BF008FB022120000BF016FB5A
:1024F000032120000BF022FB022120000BF030FB17
:10250000A0219622490020000BF0C8FA20000BF011
:102510001CFA10BD2C040020F7B52C4D0400280037
:102520000BF04DFA2A4900284BD0286812F0BCFD68
:102530000B0003210200009120000DF0C1FA254E8E
:10254000200031000DF068F9686812F087FD002264
:10255000214B11F0FBFA022702000B00200000972C
:102560000DF0AEFA310020000DF056F9A86812F017
:102570009BFD009702000B0020000DF0A1FA310036
:1025800020000DF049F9E86812F068FD0022134BB5
:1025900011F0DCFA009702000B0020000DF090FA19
:1025A000310020000DF038F90D4928000BF04EFAEB
:1025B00012F07AFD009702000B0020000DF080FA67
:1025C000310020000DF028F9F7BDC0462C04002092
:1025D000A5870100A98701000000594000408F40F5
:1025E00000507D44F7B54A4C4A4920000DF030F9BF
:1025F000494D7721012228000BF0C4FA4749061EF5
:102600001CD0042128000BF077FA022128000BF0DF
:1026100085FA032128000BF091FA022128000BF023
:102620009FFAFA22A0219200490028000BF036FA06
:1026300028000BF0FEF9061E05D1394920000DF0E7
:1026400007F93000FEBD200036490DF0E5F8286896
:1026500012F02AFD022702000B00200000970DF067
:102660002FFA200030490DF0F3F820002F490DF02B
:10267000D3F8686812F0F2FC00222D4B11F066FAD4
:10268000009702000B0020000DF01AFA20002949E3
:102690000DF0DEF8200028490DF0BEF8A86812F011
:1026A00003FD009702000B0020000DF009FA200046
:1026B00022490DF0CDF8200021490DF0ADF8E86871
:1026C00012F0CCFC00221F4B11F040FA00970200E0
:1026D0000B0020000DF0F4F920001B490DF0B8F8B4
:1026E00020001A490DF098F8280019490BF0AEF9AE
:1026F00012F0DAFC009702000B0020000DF0E0F968
:10270000200014490DF0A4F820000DF08FF898E790
:1027100024100020AB8701002C040020B8870100A2
:10272000E1870100FE8701000D880100118801008A
:10273000000059401D880100228801002E880100F8
:102740003188010000408F40388801003F88010037
:1027500000507D445388010010B5044C0021200036
:102760000CF052FE20000CF083FE10BDEC0A00209D
:10277000F7B51C4C050020000CF0DCFC002823D031
:1027800020000CF043FE002803D10A300DF056FF64
:10279000F6E70026032720000CF0CCFCB04213DD46
:1027A0001149F300C91820000CF0B8FE12F07CFCAF
:1027B000009702000B0028000DF082F928000B4959
:1027C0000DF02AF80136E6E720000CF0B3FC040017
:1027D000042C05DC280005490DF01EF80134F7E74C
:1027E000F7BDC046EC0A0020080B0020A9870100B5
:1027F000F8B500241B4E30000CF072FD1A4D30006D
:102800000CF098FCA0422BDD29003000E2B20CF065
:102810009FFC002810D1154F154938000CF0FCFF23
:1028200021000A2238000DF064F8380011490DF03B
:102830000FF801340835E2E700220F490F4F00235B
:10284000C85C8446E85C844505D10133082BF7D188
:10285000D05D002805D101320831142AEFD1E8E714
:102860000020F8BDEC0A0020080B002024100020F6
:1028700056880100718801002D00002018000020FA
:1028800070B506000D000400083628000D490CF054
:10289000C3FF23780F2B03D80B490C480CF0BCFF67
:1028A0002178102228000DF03EF801342800084954
:1028B0000CF0B2FFB442E8D128000CF0B7FF0120C1
:1028C00070BDC04618940100568B010024100020F2
:1028D000A9870100F0B5744C85B0744903902000BD
:1028E0000CF09AFF724D28000CF0FAFC28000CF056
:1028F00021FC0A22010020000DF015F820006D498E
:102900000CF0A6FF28000CF015FC002800D1C8E050
:10291000694920000CF080FF28000CF0EBFD6749AE
:10292000002800D1664920000CF092FF0027604D7E
:1029300028000CF0FFFB5C4C624EB8424EDDFB0001
:10294000F61831002800FAB20CF002FC00280CD175
:102950005D4920000CF060FF39000A2220000CF0D5
:10296000C8FF200059490CF073FF594920000CF0B2
:1029700053FF0A22390020000CF0BBFF554D200008
:1029800029000CF049FF21003000FFF779FF524980
:1029900003980CF041FF0A22390003980CF0A9FFBC
:1029A000290003980CF038FF03993000FFF768FF07
:1029B0003F4D00230C22310028000CF0C8FC474991
:1029C00020000CF029FF310028000CF069FC0A22DD
:1029D000010020000CF0ABFF0137A8E740492000C0
:1029E0000CF01AFF310028000CF05AFC0A220100FA
:1029F00020000CF09CFF28000CF03AFD002128007C
:102A00000CF002FD374920000CF022FF0DF0D0FD44
:102A1000060028000CF0FAFC00280DD10DF0C8FDCE
:102A2000314B801B984207D8200030490CF0F4FE4F
:102A300064200DF003FEECE720000CF0F7FE00260A
:102A400028000CF077FBB0422BDD214920000CF070
:102A5000E3FE0A22310020000CF04BFF2449200045
:102A60000CF0DAFE174FF300FF18390028000CF0C5
:102A700055FD12F019FB0B0003210200009120000C
:102A80000DF01EF81B4920000CF0C6FE390028008E
:102A90000CF006FC0A22010020000CF048FF013671
:102AA000CEE7012005B0F0BD241000207A88010097
:102AB000EC0A0020A9880100B3880100C788010042
:102AC000CA880100080B00205688010071880100A7
:102AD000CE880100D6880100E1880100EE8801005F
:102AE000FC880100128901000F270000B188010055
:102AF000558C010035890100F0B5434D8BB00400C1
:102B0000280005F0D1FB0590280005F0C1FB060068
:102B1000280005F0B1FB0700280005F0A1FB069096
:102B2000280005F091FB0790280005F081FB6B461B
:102B3000998A079B32000193069B0290009308A894
:102B40003B0002F0FBF808A802F05CF90A22010041
:102B500020000CF0DCFE2D4E200031000CF05CFE5D
:102B6000222120000CF05CFE280005F09DFB0A22CB
:102B7000010020000CF0D7FE254F200039000CF09A
:102B80004BFE280005F084FB0A22010020000CF017
:102B9000CAFE390020000CF03FFE280005F06CFB57
:102BA0000A22010020000CF0BEFE1A4920000CF0A1
:102BB00033FE280005F054FB0A22010020000CF02F
:102BC000B2FE154F200039000CF026FE280005F05B
:102BD0003BFB0A22010020000CF0A5FE390020007A
:102BE0000CF01AFE280005F023FB0A220100200049
:102BF0000CF099FE222120000CF012FE3100200082
:102C00000CF00AFE0BB0F0BD3C060020A9870100C5
:102C10004A89010074930100828E010010B50121E0
:102C200010200EF037F800210D200EF033F8024B83
:102C3000186806F04BFA10BD1C04002070B50C4C4F
:102C40000C4920000CF0E8FD2000FFF755FF0A4D6D
:102C50000A4C296820008B7BCA7B097C05F0B6FBF7
:102C6000296820008B7A4A7A097A05F061FB70BDE9
:102C7000241000204C8901001C0400203C06002088
:102C8000F7B5104F04003B680526586912F00CFA9E
:102C9000009602000B0020000CF012FF0A4D2000ED
:102CA00029000CF0B9FD3B68986912F0FDF9009617
:102CB00002000B0020000CF003FF290020000CF0A4
:102CC000ABFDF7BD1C040020A9870100F8B5374C07
:102CD000374920000CF0BCFD364920000CF0B8FD4F
:102CE0001021354806F0A4FA344B354D00284BD05E
:102CF0008620012280001A700DF0D6FC0600314FAC
:102D0000390005F015FF38002E6001F051FA10214E
:102D1000286805F037FF2C49002800D12B492000F6
:102D20000CF096FD012110200DF084FF00211020F1
:102D30000DF0B0FFFA2080000DF080FC2449200047
:102D40000CF086FD0A200DF079FC286806F0D0F919
:102D5000204920000CF07CFD0A200DF06FFC286853
:102D60001D4905F059FF28681C4905F055FF2868E2
:102D70001B4905F051FF1B4920000CF069FDFA20AA
:102D800080000DF05BFCF8BD1870862080000DF00F
:102D90008BFC1549060005F0A1FE96213000890143
:102DA0002E6005F0EFFE1149B9E7C046241000205F
:102DB0005689010061890100C5050020200400201A
:102DC0001C0400208C0B00207689010094890100EE
:102DD000DA890100FD890100098A0100198A0100D0
:102DE0004B8A01005C8A0100341A0020B48901007A
:102DF00010B5114C206805F071FD00280DD0206839
:102E000005F00EFF0028F4D02468200005F00DFF27
:102E10000100200005F020FFEBE7206805F03AFDF7
:102E2000FC2189050FF0FEFA002802D0206805F089
:102E300043FD012010BDC0461C040020F0B54B4FDF
:102E40004B4B85B00400F8681D6810F093FA291CFC
:102E5000061C281C0FF026FC311C0FF089FF311CCA
:102E60000290281C0FF084FF061C386910F082FACB
:102E7000291C0FF07DFF311C0FF014FC03907868C3
:102E800010F078FA291C0FF073FF311C0FF00AFCC8
:102E90000399051C029810F085F8011C35480FF0C5
:102EA0009DFD03990FF064FF12F0FEF802000B0085
:102EB0000020314910F04AFE304A314B11F0B8FC85
:102EC00002000B0000202C4910F040FE12F034F9F3
:102ED000291C061C029810F065F8011C25480FF00B
:102EE0007DFD291C0FF0DEFB12F0DEF802000B0066
:102EF0000020214910F02AFE204A214B11F098FCB5
:102F000002000B0000201C4910F020FE12F014F902
:102F1000051C301C12F0C8F80B00022102000091C1
:102F200020000CF0CDFD174F200039000CF074FC90
:102F3000281C12F0B9F80B000221020000912000B9
:102F40000CF0BEFD390020000CF066FC0E4B9C42DC
:102F50000AD10021301CFFF765FA3800FFF786FA26
:102F60000021281CFFF770FA05B0F0BDCC05002049
:102F70001400002000409C460000F03FFD26FD6943
:102F80000EF9A33EA98701002410002073B50500A7
:102F9000012406260C4BA200D05810F0EBF90B4B85
:102FA000013419680FF0E4FE12F07EF8009602007A
:102FB0000B0028000CF084FD280005490CF02CFCC7
:102FC000052CE7D173BDC046CC05002014000020BD
:102FD000A987010030B5002487B005AB01381C700B
:102FE000032840D803932349234A244C244D254BDE
:102FF0000FF01EF80218232E043302936B4622486A
:103000000195007818700B78127820492000097813
:103010000CF056FB431E9841C3B20120002B27D071
:103020001B4921E0083302936B461748019500784D
:1030300018700B7812781749E8E70C3302936B4647
:1030400011480195007818700B7812781249DDE765
:10305000103302936B460C480195007818700B787A
:1030600012780E49D2E70E490E480CF0F1FB002011
:1030700007B030BD271A00202C1A00202804002099
:1030800040420F00CC050020281A00202D1A0020F5
:10309000818A01002E1A00202F1A0020301A0020E9
:1030A000708A01002410002010B50120FFF792FF64
:1030B0000220FFF78FFF0320FFF78CFF0420FFF7AC
:1030C00089FF10BD73B505000E00FFF783FF1B4C91
:1030D0001B4920000CF0A0FB0A22290020000CF064
:1030E00022FC200017490CF097FB310020000CF067
:1030F00093FB200014490CF08FFB144EAD000A2204
:10310000A95920000CF0D6FB114920000CF084FBDB
:10311000A85910F02FF90F4B19680FF029FE11F084
:10312000C3FF0B0006210200009120000CF0C8FC38
:10313000200009490CF08CFB012076BD24100020F2
:10314000928A0100A38A0100828E0100CC05002032
:10315000A78A010014000020AA8A0100012110B5ED
:1031600004000A200DF066FD0121002C00D1210091
:103170000A200DF08FFD012010BD012110B50400C3
:1031800006200DF057FD0121002C00D12100062062
:103190000DF080FD012010BD094910B5884205D908
:1031A000084909480CF054FB002010BD8302181A8E
:1031B0000EF0E6FF01000E200DF056FC0120F4E7B2
:1031C000E40C0000B28A01002410002010B5012197
:1031D00010200DF05FFD00210B200DF05BFD0021A4
:1031E0000C200DF057FD0020FFF7B8FF0020FFF77F
:1031F000C4FF0020FFF7D0FF10BD000013B504008E
:103200002D200DF0BDFB10F0FBF8011C0FF04AFA69
:1032100011F04AFF0C4A0D4B11F09EF811F08CFF93
:10322000EA2189050FF0A4FD11F03EFF0B000221F9
:103230000200009120000CF043FC200004490CF037
:10324000EBFA002016BDC0466666666666660A40F2
:10325000A987010010B52D200DF092FB10F0D0F8D9
:10326000011C0FF01FFA11F01FFF054A054B11F06A
:1032700073F811F061FFEA2189050FF079FD10BDA7
:103280006666666666660A40744A70B5744C136872
:1032900025680133734E13601E2D00D08AE07248FA
:1032A00004F0C6FF29000EF067FFC9B2042900D957
:1032B00080E00023FA202360012480003470FFF7AF
:1032C0006BFF2000FFF759FF2000FFF747FF2100A9
:1032D0000B200DF0DFFC0DF0ABF9FFF7E5FE6348C6
:1032E000FFF7C4F8FFF7B6FF10F024F800B2FFF7BD
:1032F0008BF85F48FFF7BAF85E4D2800FFF79EFD98
:1033000028005D490CF0A4FA3378002B2ED000235E
:10331000082033700DF0EAFC4142414108200DF0D5
:10332000B9FC564C2000FFF7E7FBFFF715FAFFF753
:10333000D5F8FFF7B9FE2000FFF728FE2000FFF7C1
:1033400017FA2000FFF7E8F82000FFF799FC2000AB
:10335000FFF754FF2000FFF771FD0A2220004849C3
:103360000CF0CBFA20001030FEF780FFFFF772FF61
:1033700011F09AFE434A444B0FF010F8002867D032
:10338000394804F041FF414928000CF061FA4048F7
:10339000FFF778F8FA20C0000DF050F9FFF716FF9C
:1033A000002108200DF076FC01210D200DF072FCAB
:1033B00030BFFDE72368002B0FD02368052B1AD1FF
:1033C000294804F035FF1E210EF0D6FEC9B20A29A5
:1033D00011D90A23002123607AE7234804F028FF4B
:1033E0001E210EF0C9FEC9B20529E6D90523012127
:1033F00023600C206DE723680A2B0CD11A4804F0D7
:1034000017FF1E210EF0B8FEC9B20F2903D90F23F2
:1034100023600021EDE723680F2B00D05BE7124803
:1034200004F006FF1E210EF0A7FEC9B2192900D82C
:1034300051E71E2300210D2023600DF02BFC0021FD
:1034400008200DF027FC00210B200DF023FCE0E705
:10345000FA2040000DF0F2F870BDC04624040020B0
:1034600004000020210400203C060020198B0100EC
:10347000558C0100241000208AA50100C004002002
:1034800019FCFFFFCDCCCCCCCCCC0A40E68A0100A5
:10349000018B0100F7B500210A200DF0CBFB2D2098
:1034A0000DF06EFA0FF0ACFF011C0FF0FBF811F0FD
:1034B000FBFD1A4A1A4B10F04FFF11F03DFE194D5B
:1034C000041C194928000CF0A7F9EA21201C8905E1
:1034D0000FF04EFC11F0E8FD02230F000600020081
:1034E000009328000B000CF0EBFA104928000CF0B8
:1034F000AFF930003900094A094B0EF063FF041E92
:1035000005D028000A490CF0A3F90120FEBD2800CF
:1035100008490CF09DF92000F8E7C046666666662B
:1035200066660A4024100020188B01001F8B0100E2
:10353000268B0100378B0100F0B5002787B003AB65
:10354000197013495F70461804003B00300003995E
:10355000912504F01CFDED00B84202D1605107B086
:10356000F0BD0C4B6651E35C3800002BF7D10093A3
:10357000012331001A00200004F086F90028EED162
:103580000300009001222000615904F07DF9E6E774
:103590008C0400009A04000073B5394B394D0021AA
:1035A0002800394A0093394B07F09AFC384B002128
:1035B0002800384A0093384B07F0A8FC0022280066
:1035C000110007F09DFC280007F0AAFCE121334C14
:1035D0004902200007F018FAC8200DF02FF83049F2
:1035E00020000CF035F92F4920000CF015F92E4978
:1035F00020000CF011F90A22042120000CF07DF9C2
:103600002A4E042130002A4AFFF796FF002813D1E2
:10361000284920000CF01CF9274920000CF018F96B
:10362000264920000CF014F9200025490CF010F96F
:1036300001200DF003F8FBE7012108200DF02AFB23
:103640009123DB00F05804F0DEFB06001D4920004A
:103650000CF0E2F8F10A0A2220000CF072F9802343
:10366000320028009B00002107F043FC28000122C3
:10367000002107F045FC0122134B1A7073BDC046B0
:10368000548B0100380B00204B8B0100178E01007A
:10369000E121000061210000A12100002410002090
:1036A000588B0100868B0100A18B01004006002091
:1036B000001BB700A78B0100CF8B0100E58B010039
:1036C000FF8B0100438C0100080000200122F0B5AF
:1036D000354B85B05A707E329A700CF069FFFA2231
:1036E0000024324B92001860314B32489A60324AC3
:1036F0005C609C64DC641A609023DB00C4502F4B38
:103700002F4AC4500433C4502E4B2F4EC4500433A0
:10371000C250A8222D4B9203C4520433C2502C4BEA
:103720003200C4522B4B2C49C4540233C4502B4B8F
:10373000C4540DF051FB2A4804F042FD294B2A4D98
:1037400002932A4B2A4F019301235B4200932022CC
:103750002B008021380005F0DBFD320025493800C0
:103760000DF03AFB244807F0A7FB244A244B29001C
:103770001A605C601C645C64224B23481A605C60C5
:103780001C645C640AF0DAF8204C052120000BF080
:1037900001FC21001E480BF0C5FC1E4B1E48197889
:1037A0000BF0D2FE05B0F0BDC5050020300B0020A7
:1037B000C004002040060020908F01008404000017
:1037C00000093D008C04000000000020940400006B
:1037D0009C0400009E04000003210000A4040000DB
:1037E0003C060020A08601008C0B0020801A0600F9
:1037F0001005002071930000380B0020B48F0100E9
:10380000F40500207C0500202C040020E0050020A9
:10381000EC0A00201000002028040020F7B5FFF774
:10382000BBFE0CF0C5FE6F4C20600CF0C1FE6E4E6E
:1038300030606E4B1B78002B00D09AE06C4A1278F7
:10384000002A61D06B4A1168002904D06A486B4A8B
:10385000083003F0A5FF6A4D6A4928000BF0F8FF15
:10386000654B08330093684800220099083003F044
:10387000D9FF634F019000283DD0634B186C00289E
:103880001AD0390003F0DAFC2021280007F03EF8B6
:103890005D4B186C002817D0290003F0AEFD5A4B81
:1038A0001A6C002A17D013782F2293431BD02F2194
:1038B000380007F02BF816E0534B586C0028E3D083
:1038C000390001F0FCFEDFE7586C0028E7D0290042
:1038D00001F02BFFE3E75B6C002B04D05022313367
:1038E0001B781342E3D128000BF0A0FF46480830B4
:1038F00003F042FFB7E7009803F03EFF38000BF0FB
:1039000095FF3B4B019A1A7009F048FA0CF050FEF3
:103910003368C01AFA239B0098420DD909F05CF86D
:10392000002802D10123314A137009F05DF8002804
:1039300002D101232D4A13700CF03AFE2368C01AFD
:10394000FA235B00984203D900210D200DF0A2F963
:103950000CF02EFE2368C01A2C4B984206D92C4935
:1039600027480BF075FF0123204A13700CF060FE0E
:103970005FE7234D274928000BF06AFF0A200CF06F
:103980005DFE00222448110007F0BAFA00233A2213
:103990001800022108F0B2F9280020490BF058FF66
:1039A000FA250CF005FEED0020600CF001FE236806
:1039B000C01AA84202D209F0F1F9F6E790210022DC
:1039C000174BC9005A5017495A509122D2009858A3
:1039D000002801D004F0CEFA002108200DF05AF999
:1039E000F7BDC046C8050020E80A0020340B0020BF
:1039F0000800002014100020F40500204A8901006E
:103A000024100020578C01007C05002020BF0200FC
:103A1000648C01008A8C0100380B00209E8C010010
:103A20004006002084040000F7B50BF07DFD012066
:103A30000CF004FE234DFA27280000F0B9FB224EBB
:103A400001222800317800F034FCFF00280000F04B
:103A500077FB1E4C00280CD120001D490BF0DCFE2A
:103A60001022200031780BF062FF38000CF0E6FDE8
:103A7000ECE7200017490BF0EBFE200016490BF095
:103A8000CBFE164B186811F00FFB0B00062102004D
:103A9000009120000CF014F8200011490BF0D8FE22
:103AA00010490120FFF70EFB0F490220FFF70AFB28
:103AB0000E490320FFF706FB0D490420FFF702FB28
:103AC000F7BDC0468C0B0020100000202410002001
:103AD000AF8C0100CB8C0100DE8C010014000020B3
:103AE000EC8C0100F78C0100088D0100178D01009E
:103AF000288D0100F0B50121A3B00D200DF09AF83A
:103B0000012108200DF096F8012106200DF092F811
:103B100001210A200DF08EF801210B200DF08AF80A
:103B200001210C200DF086F8022107200DF082F80B
:103B3000012110200DF07EF8012110200DF0AAF8CF
:103B4000FFF76CFE9621E04C8901200006F05CFF37
:103B5000200006F073FF002813D10CF029FDDB4B89
:103B60001B68C01ADA4B98420BD80D200DF0BEF836
:103B7000414241410D200DF08DF8FA200CF05EFD20
:103B8000E6E7FA2040000CF059FDD24920000BF086
:103B90005FFED14920000BF03FFED04E20003100E7
:103BA0000BF03AFECE4920000BF036FE2000CD4946
:103BB0000BF04EFE0025CC4BAA002000D158013559
:103BC0000BF046FE0D2DF6D1C84800F0F1FAC84FB3
:103BD000380005F001FB380005F006FB2800012144
:103BE0000DF058F8012108200DF054F8FA20C0001B
:103BF0000CF024FDBF4F08AD0021380004F056FC46
:103C000031002800B74A01F0B1F82B786A78303BD0
:103C1000A9783800DBB204F0D9FB6B792A79E9780E
:103C2000380004F085FBFFF735FC0600FEF7E0FDE9
:103C3000051E1AD0B04920000BF0EEFD0A22290023
:103C400020000BF074FEFEF771FBAC48002E0AD08A
:103C5000FFF700FB11F028FAA94AAA4B0EF09EFBD1
:103C600000280BD0A848FEF73DFB2000A7490BF029
:103C7000EFFD2000A6490BF0EBFDE4E707200DF077
:103C800035F8002801D1A348EDE70421A24AA34852
:103C9000FFF752FC002801D1A148E4E71022A14916
:103CA0000AA811F0BAFB01262B0010219E4A0096AB
:103CB0000AA811F0BBFF9022984BD20099580EA889
:103CC000002944D000230AAA0380837002F0A8FED2
:103CD000002803D0954B01369E42E5D1944920003F
:103CE0000BF09AFD0AA920000BF0B2FD914B8B4915
:103CF0000AAA0EA803F058FE8F4D0F9B28006B6098
:103D0000109B10300593AB60119B12A9EB6003F080
:103D100029FDAB6C002B2AD1EB6C002B27D12000A6
:103D200086490BF079FD20000AA90BF091FD0D24C6
:103D3000012120000CF0AEFFFA200CF07FFC2000E7
:103D400000210CF0A7FFC8200CF078FCF0E77C4ABB
:103D50009B589C46002BC1D0592304AA9B1819706C
:103D60000AAA0B004186614601F084FCB0E7754960
:103D700020000BF051FD0AA920000BF069FD6E4DEB
:103D8000714B280019680BF063FD704B280019680F
:103D90000BF05EFD28001030FEF768FAFEF796FF84
:103DA0002800FEF797FDFEF71DFCFFF73DFEFA2009
:103DB0008000FFF7F1F9FFF737FE0120FFF7DDF98B
:103DC0000120FFF7CBF9FA20C0000CF037FCFFF719
:103DD0002BFE01210B200CF05DFF5D480CF02EFC4A
:103DE00000210B200CF056FF01210C200CF052FF9B
:103DF00057480CF023FC00210C200CF04BFF002155
:103E00000D200CF047FF012108200CF043FF00209B
:103E1000FFF7B3F90020FFF7A1F94E4920000BF09E
:103E200017FD380004F040FA0590380004F030FA2D
:103E30000600380004F020FA0500380004F010FAFB
:103E40000690380004F000FA0790380004F0F0F90A
:103E50006B46998A079B32000193069B0290009360
:103E60000EA82B0000F06AFF0CF0A2FB05900CF0EE
:103E70009FFB002506900CF09BFB059B364EC01A5D
:103E8000364B98426ED933684F331B78002B00D0E5
:103E9000E9E0334920000BF0DBFCFEF7BFFE012117
:103EA00008200CF0F7FEFA20FA25C0000CF0C6FB43
:103EB0006D00380004F0BCF9011E00D1EFE02800CD
:103EC0000CF0BCFBF5E7C04624100020300B0020AE
:103ED0001F4E0000398D0100578D0100658D0100D6
:103EE000558C0100718D0100D40000208C0B002046
:103EF000C50500203C0600207A8D0100DD8D010003
:103F00003333333333330B40F58D0100888D01009B
:103F1000B28D0100098E0100001BB7004006002091
:103F20001F8E0100778F0100348E0100E70300002F
:103F3000478E010002420000C0040020578E01009D
:103F400084040000718E01000C000020D0000020CD
:103F5000B80B0000848E01001C0400200F27000015
:103F6000FE8E0100FEF744FFFA200CF067FB0D20E7
:103F70000CF0BCFE414241410D200CF08BFE336839
:103F80004F331B78002B01D001352DB20CF010FB04
:103F9000069BC01A4A4B984238D9002D3ED1494859
:103FA000FEF764FA0CF004FBFA21059B8900C01AA5
:103FB0000EF05CF800B2FEF715FA434920000BF052
:103FC0002BFC0CF0F5FAFA21059B8900C01A0EF0C3
:103FD0004DF80A2201B220000BF08BFC3B49200077
:103FE0000BF01AFC0CF0E4FAFA21059B8900C01AC8
:103FF0000EF03CF80A22111A20000BF088FC200079
:1040000033490BF025FC0CF0D3FA0690F520800024
:104010000CF014FBB42D00D02DE734E700223368F8
:104020002C484F331A70FEF721FA2800FEF7ECF9FE
:104030002948FEF71BFAB420FEF7D4F920002749DF
:104040000BF0EAFB0A22290020000BF052FC2000B2
:1040500023490BF0E1FB0A22B42120000BF04DFCB8
:10406000FEF7ECFDCFE71F4920000BF0F1FB1E48E7
:10407000FEF708FA1D4920000BF0CEFB2000FEF7EA
:104080003BFD1B4D200029000BF0E2FB19492000ED
:104090000BF0C2FB2000FEF7F3FD2900FAE6380022
:1040A00004F0A6F93800012104F09CF83800124908
:1040B00004F0B8F8200011490BF0CAFB23B0F0BDA2
:1040C00010270000968E0100A68E0100BD8E010013
:1040D000D08E0100DA8E01004A890100E68E0100CF
:1040E000E78C01002F8F01003C8F0100488F0100F9
:1040F0008AA50100538F010055210000628F010045
:10410000F8B505000E0017000024BC4208D02B684B
:104110002800315D1B689847002801D00134F4E77E
:104120002000F8BD70470300FC33196ADA69914238
:1041300003D01B6AC018007E704701204042FBE795
:104140000300FC33D8691B6AC01A01D50130FF3067
:1041500070470000F7B50193FA238027002504007B
:104160009B008360114B7F0008330E0045602900DF
:10417000009203603A00183011F06BF92300200020
:10418000FC332130DD613A001D622900FF3011F05F
:1041900060F987239B00E3185D609D60009B200011
:1041A0002375019B2661A5756375FEBD2C920100E8
:1041B00070B5040018260C4900690BF067FF2069F0
:1041C0000BF0B6FD33000821207D084D4343EB186A
:1041D00059560CF0A3FD0821607D4643AD19695680
:1041E0000CF09CFD70BDC046A086010038A1010006
:1041F00070B504000D0000690BF0AFFD29002069C7
:104200000BF044FF20690BF093FD70BD8A23002260
:104210009B00C1540C3BC3185A609A6001238375FC
:1042200070470200FC32536810B501339468DBB26A
:104230009C4202D054680155536010BDF7B50193FC
:1042400000230400150018009A422FD02200FC32EF
:10425000D3612069136201220BF0B2FD002826D041
:10426000270020690BF02EFE183701003800FFF7F9
:10427000D8FF01262069B5420ED00BF081FD022146
:1042800020690BF087FD20690BF01CFE010038004F
:10429000FFF7C7FF0136EDE70BF069FD019B002B2F
:1042A00003D0032120690BF075FDE8B2FEBD0500C7
:1042B000FBE710B50123FFF7C1FF10BD10B50300E8
:1042C000827D002082420ED0872292009C18626874
:1042D000A4680132D2B2A24205D02133FF331800C4
:1042E000FFF79FFF012010BD0300FC3399685A6857
:1042F000914206D09A68805C9A680132D2B29A6084
:10430000704701204042FBE700228A2370B59B00E2
:10431000827505000E00C15C00690BF051FD00289C
:1043200006D1032128690BF035FD0224200070BD61
:10433000872328009B00EA18536894682130FF30D7
:104340001C1B01D50134FF34002C0ED02C69FFF763
:10435000CBFFC1B220000BF071FD0028E8D1032192
:1043600028690BF017FD0324E0E7002EDED00321BF
:1043700028690BF00FFDD9E710B50121FFF7C4FF45
:1043800010BD10B51830FFF7AFFF10BD70B50400B9
:1043900000690BF075FD002814D020690BF07EFD3C
:1043A000002810D020690BF0EBFC032120690BF0F2
:1043B000F1FC8C239B00E558002D39D10023FC34FF
:1043C000E361236270BD20690BF072FD002809D003
:1043D00020690BF068FD002804D020690BF06DFD0A
:1043E0000028DFD020690BF063FD002826D120696A
:1043F0000BF04FFD0028E5D020690BF05EFD002892
:1044000037D087239B00E218536892689B1A01D526
:104410000133FF33FF21002B05D020002130FF3076
:10442000FFF762FFC1B220690BF01BFDA075C9E761
:10443000236820001B699847A847BFE720690BF055
:104440009FFC206903210BF0A5FC20690BF035FDD2
:104450000028B7D0872300229B00E3185A609A6097
:104460000123A3758B239B00E3589342AAD098475E
:10447000A8E72200FC32D369126A0133DBB220695B
:10448000934206D10BF073FC032120690BF082FCF0
:1044900098E70BF017FD010020001830FFF7C1FE70
:1044A00020690BF06DFCEFE710B50248FFF76EFFD7
:1044B00010BDC0468C0B002010B5152314220249F4
:1044C0000248FFF747FE10BD382000208C0B00206B
:1044D00010B500F057FB0022024B8000C35849334F
:1044E0001A7010BD140E0020F0B5040085B01E0037
:1044F0000AAB1B78103001930BAB1B7817000293AB
:104500000CAB1B780D00039300F0BEF920002430A3
:1045100000F0BAF9220000234832A363E363236466
:1045200063641370537063729D4205D12721084B59
:10453000084A094810F0B2FE2000019B2560637113
:10454000029B2771E371039BA671237205B0F0BD36
:104550005092010061920100B592010030B5040053
:1045600085B002AD0068029103920BF09DFB6B7960
:10457000227AE1792068009300230BF05DFD297910
:10458000029A20680BF0B4FB20680BF083FB05B0A7
:1045900030BD10B5040000680BF06FFB00236372A0
:1045A00010BD000007B5837A00910192002B07D05F
:1045B0009A070AD5EFF310835A425341C37272B679
:1045C0000099019AFFF7CAFF07BDDB07F8D5C3685A
:1045D000014A9BB29360F3E700180040837A002BF6
:1045E00005D09A0704D5C37A002B00D062B6704775
:1045F000DB07FCD5C368024A9BB2D360F7E7C0462D
:104600000018004010B500680BF057FB10BD70B5E6
:1046100005000C008E18B44206D021782800FFF760
:10462000F1FF20700134F6E770BD000010B500689E
:104630000BF056FC03000020834203DB0C304343A5
:10464000014A985810BDC0461C93010010B500687F
:104650000BF046FC002805DB0C2343430348C0183D
:10466000406810BD01204042FBE7C0461C9301009A
:1046700010B500680BF034FC002805DB0C23434325
:104680000348C018806810BD01204042FBE7C046C7
:104690001C930100F0B506001036050089B030000B
:1046A00000F048F900286CD12F002437380000F0C2
:1046B00041F9041E62D12800FFF7DAFFC1B23000D1
:1046C00000F018FA0221300000F038FA01222E49D9
:1046D000300000F00BFA300000F054FA2B4B800051
:1046E000C5502800FFF7B2FFC1B2380000F002FA4F
:1046F0000221380000F022FA380000F043FA234B80
:104700008000C5502800FFF791FF0123010022001F
:10471000029330002300049403940194009400F069
:1047200033FAA8632800FFF781FF0123020021006C
:10473000019338002300049403940294009400F041
:1047400023FAE863402010F03BFE2A004832286438
:10475000079200280BD00123137068646B6C102241
:104760001819E96B103410F058FE402CF6D1079B55
:104770001B78002B05D1380000F076F9300000F0EE
:1047800073F909B0F0BDC046D1440000140E0020FA
:1047900070B5437A0400002B03D101224381427299
:1047A000C360230048331B78002B02D12000FFF7A1
:1047B00071FF18263300082120790D4D4343EB1873
:1047C00059560CF0ABFA33000821A0794343EB189B
:1047D00059560CF0A3FA082160794643AD19695681
:1047E0000CF09CFA034B200006CBFFF7B7FE70BD20
:1047F00038A101000C0E00201FB5094A094B0A49D7
:1048000013600023938002930133019316330093C6
:10481000162201330548FFF767FE05B000BDC0460C
:104820000C0E002000093D003C200020C00D00209F
:10483000084B1968002909D1EFF31080064A0028B7
:1048400003D172B6BFF35F8F013111701A68013264
:104850001A607047D80F0020D40F0020084B1A6848
:10486000002A0CD01A68013A1A601B68002B06D186
:10487000044B1B78002B02D0BFF35F8F62B67047EA
:10488000D80F0020D40F0020FF2310B50370C023E1
:10489000002104009B004170418083800C2208307D
:1048A00010F0D7FD200010BD01230A0010B51A40FA
:1048B000194208D00C4A1370033343708368002BED
:1048C00000D0984710BD0223194204D006490B704E
:1048D000C3684270F3E704231942F3D0024A13700D
:1048E000033343700369EAE74E48004110B5FFF710
:1048F0009FFF0C4B1B8C1B071B0F0B2B0FD80A4A5F
:104900009900885800280AD00F2408490A78A24341
:1049100013430B70064B1978C9B2FFF7C5FFFFF7B9
:104920009DFF10BD00480041DC0F00203F480041C2
:104930004E480041F8B500230278050018000B2A04
:1049400077D93C4E2B702B780B2B07D801229A403D
:104950003168114204D001332B70F4E7012068E084
:10496000FFF766FF3768344C002F2BD12022334BE2
:10497000334859690A435A611022D9690A43DA61F6
:10498000022223883900934323802388013A13436A
:1049900023802C4B6063BF32A36310F05AFDC0220A
:1049A0003900284810F055FD4022C120264B8000D8
:1049B0002380264B26491A601A581140C02212043F
:1049C0000A431A5001231A00297830688A400243AA
:1049D00032600F261F4A880085501F4831400278F8
:1049E000B2430A43027002201C4A117881431170BD
:1049F000117819431170297822698B409A432261FA
:104A000060223F21636C934363642A79636C0A409C
:104A1000134912020B400321134363646A79636CE8
:104A20000A40104992050B4013436364FFF716FFD9
:104A30000020F8BDD00F00200048004100040040D5
:104A4000100F0020500E0020020F000000E100E0D7
:104A5000FFFF00FFDC0F00203F48004140480041BD
:104A6000FFC0FFFFFFFF3FFF70B50500FFF7E0FE4F
:104A70006B785CB2062B2BD02B7802240B2B27D81B
:104A800001229A40144B1968114221D019689143B0
:104A900019601B68002B14D14022104BDA67BFF35A
:104AA0004F8FBFF36F8F21000D4A0E311388A34340
:104AB00013800C4BDA698A43DA615A6910318A43F0
:104AC0005A6100242B78084A9B009C50FF232B70CE
:104AD000FFF7C4FE200070BDD00F002004E100E00D
:104AE0000048004100040040DC0F00200232920028
:104AF00011507047037870B505000C0001710B2B45
:104B000014D8FFF795FE29780F2509482940037826
:104B1000084AAB430B4303703F23516C1C40064BC8
:104B2000240219400C435464FFF798FE70BDC04640
:104B30003F48004100480041FFC0FFFF037870B5C7
:104B400005000C0041710B2B14D8FFF771FE29787A
:104B50000F25094829400378084AAB430B430370EB
:104B60000323516C1C40064BA40519400C435464AC
:104B7000FFF774FE70BDC0463F4800410048004149
:104B8000FFFF3FFF00787047F0B587B001930CAB93
:104B90001E780DAB1B78050002930EAB1B780078D6
:104BA000039310AB1F78049105920B2802D90020C3
:104BB00007B0F0BD6B78062BF9D0AB78002B00D195
:104BC00079E01021080010F0F1FB0028EFD02B78DD
:104BD0003B4A1B019B181A00D168002904D0D168F8
:104BE0008B4201D0D268F7E7D06001220223AA707D
:104BF000964203D0DB18022E00D013000624018851
:104C0000114301800188A143018001881234A1432E
:104C10000180153C018826402A4C360221400E4373
:104C20000680029E0188284C16402140B6020E43A1
:104C30000680039E0188254C16402140F6020E4353
:104C400006800188224E3A40314012030A43072170
:104C500002800F9A114002884903D204D20C0A4301
:104C600002806A4692884280049A4260029A002A30
:104C700008D0019A41685A43002F01D00F9CA240EE
:104C80008A184260059A8260039A002A09D0019A24
:104C900084685A431300002F01D10F9A9340E31800
:104CA00083600023EA789A4203D02B78044A1B01E0
:104CB0009B18C3607CE7024B0001C01895E7C04613
:104CC000100F0020FFFCFFFFFFFBFFFFFFF7FFFFC0
:104CD000FFEFFFFF30B5012304000D4D8B4206D2DC
:104CE00028780133121892B2DBB20135F6E70229B7
:104CF00003D9A30701D1013292B26E23FF3363437C
:104D0000E01C013B8010C018101880B230BDC046B6
:104D1000649301000378303BDBB2092B00D90023F8
:104D20000A22534340783038C018C0B2704710B5DB
:104D30000368C9B21B68984710BD0000F0B5FA2798
:104D400005AC267806AC257807AC2478FF00B9427C
:104D500002D3054FC91989B2C6700571017042703E
:104D600083704471F0BDC04630F8FFFF70B5040099
:104D7000080009300D001600FFF7CCFF20702878DE
:104D80004138122815D80DF053F92814143A142676
:104D90001414140A14142E383614141434006A78B7
:104DA0000123612A04D0AB786E3B5A1E934106332F
:104DB0006370281DFFF7AEFFA0703000FFF7AAFF59
:104DC000E070F01CFFF7A6FF2071B01DFFF7A2FFF7
:104DD0006071200070BD0223EAE7AA780423722ADA
:104DE000E6D0DB18E4E7AA780323722AE0D0023386
:104DF000DEE70923DCE70A23DAE70B23D8E70C23F5
:104E0000D6E7000010B50400827841780078FFF7FB
:104E100061FF18234343E07822791B183C20434369
:104E20009B1858436379C018014BC01810BDC04689
:104E300080436D38437802781B021A438378C07828
:104E40001B04134300061843704703005A78007888
:104E5000120202439878197900040243D8780006B8
:104E600010435A7912020A43997909040A43D979FD
:104E7000090611437047F0B585B0030001AC8C46BC
:104E8000160022002433050083CB83C26346210031
:104E90005A01286A01F02CF903000020012B04D1EB
:104EA00032002100286A01F0C9F805B0F0BD10B544
:104EB000040000F08DFD22000023313233341370E2
:104EC000237010BD70B50600040000203136337821
:104ED0000D0083420AD101003822200010F0B9FAF7
:104EE00040230120337025623334207070BD0000F0
:104EF000F8B50C00060011002278202A01D10134F7
:104F0000FAE740208446194A0C608C602578002D11
:104F10001ED02F2D1CD02800203801345F2823D824
:104F20000238C0B21D2806D81700C7403800012734
:104F30008743381E17D028006746B8433C2813D053
:104F40005C2D11D02E2DE1D0202DDFD08C60DDE73F
:104F50002278202A01D02F2A01D10134F8E730002D
:104F60001C6000F088FFF8BD0020FCE70101003163
:104F70000300F0B533331B7889B004000391049229
:104F8000DA0776D55B0604D4030031331B781B07A0
:104F90000ED5206861680023049A666912184B4197
:104FA0002569B34202D803D1AA4201D92B1A04932E
:104FB000049B0193019B002B00D1A7E08721206A6D
:104FC000C900415823680D001D400291E905C90D33
:104FD00062680591002D0AD1134333D1230040228A
:104FE00031331B7813422BD04B4BC358A361266A35
:104FF0004A4B4B49F25CA3697158023B93406D0ADE
:105000005B195B180293842380279B00F018059B93
:10501000BF00002B35D1019BBB4232D386239B00BE
:10502000F358029999422CD08021C9008C460199ED
:10503000614549D2039A0299406802F0E1FF58E0C5
:10504000E369D3E72300402233331B78A16913427D
:1050500002D00131A161CAE72200183201F010F834
:10506000002806DBC3D1230031331A7850231A42BB
:105070004CD1022301203234227840421343237062
:1050800047E0059BFB1A019F9F4200D91F000022A9
:10509000029903F060F80028EBD0059B3A00C11894
:1050A000039810F0BAF9039B0697DB1903930023CA
:1050B0000793069807992268636812184B4122608B
:1050C0006360019BDB1B74E7012090400199451B45
:1050D000490A8D4200D90D0084229200B618029A26
:1050E0006F029A4208D92B00039A0299706802F065
:1050F0005DFF0028D7D1BCE7029A52199342F2D241
:10510000300003F004F80028EDD1B2E7049B019AC7
:10511000981A09B0F0BDC0463404000045040000F0
:105120002C040000F0B506684768836985B00193D8
:1051300002ABDD1D012229000400FFF719FF012841
:1051400006D12878019B26606760A36105B0F0BD99
:1051500001204042F6E70000F0B51F00836987B0E8
:105160000593030031331B78040016000293002BD3
:1051700057D00268436800920193009BB34202D16A
:10518000019BBB4205D033003B4304D1A3612660A1
:105190006760012048E0029B1B0706D56369BB429C
:1051A0003FD302D12369B3423BD301204042C11710
:1051B000236A801979410393039A1E4BD35C093308
:1051C000DBB21A0004930DF0C7F8230033331B78C9
:1051D00005005B0603D5E3691D18A561D7E7012229
:1051E0005242D3170098019980185941049A0DF042
:1051F000B3F8854203D3009B019A134318D1029B55
:105200005B0613D50C4B039AD358A361002DBED077
:105210002200A169206A183200F032FF013D002807
:10522000F4DC0020059BA36107B0F0BDE369ECE767
:105230002D1AEBE74504000034040000F0B593B0EC
:105240000293030031331B7804000D001700019313
:10525000002B47D10B0031331A7850231A4241D02A
:105260000320029B034083423CD008220299013371
:105270000A401A4305920390002F0CD0F8680F21C2
:105280000E300CF0F3FE0230C3B203930022002371
:105290002800FFF761FF0023009304930AAE202249
:1052A00031002800FFF764FE002800D1D2E020285A
:1052B00018D10022B2563378002A1EDB009A002A49
:1052C00004D12A68203A0792AA690692009A0399A3
:1052D0008A4202D20132D2B20092002B0AD1002FB0
:1052E00000D0B7E023000027313333341F70049718
:1052F000277079E000210491D0E7049A002A2DD18B
:10530000009A03998A4201D2049A00920021852BC7
:10531000F1D13822200010F09CF823000AAA51781D
:105320003033197037232100127931311340D206FE
:1053300011D50B702B6A01212362AB6922006362D5
:105340002B682C32203BA3622B0033331B789B0944
:105350000B401370CFE708221343EAE7C02B58D164
:1053600023000221059A33331A7072780A4203D05F
:10537000402205990A431A700CA8FFF766FD0F9B9F
:1053800020616161E36110A8FFF75FFD0AAEA060D4
:10539000E160002F2BD1029B1B05A3D4882325009D
:1053A000029ADB0133351A4202D12B789B0706D5CE
:1053B000230031331B78DA0694D4DB0792D4029BA6
:1053C0005B0538D52B789B078CD500220023200065
:1053D000FFF7C2FE002885D0200000F083FB0028E4
:1053E00080D02B789B072FD4049813B0F0BD3B6876
:1053F000FA687B60F37800219A4200D07BE77079ED
:10540000317900023B8A0143591A48424141C9B2ED
:1054100071E70021C12B00D06DE731003A00200078
:1054200000F0FEFC011E00D165E77B68BA6893427C
:1054300000D060E7AFE7029B5B04D2D522696369C5
:105440002000FFF789FECAE7202331342278134376
:105450002370C9E7029B9B0500D443E7059B9B078C
:1054600000D43FE7002F00D13CE7009B039A934212
:105470001FD2202228000AA9FFF77AFD002808D1B0
:105480002800AE6900F0C6FA002800D12AE7AE6114
:10549000EBE7202800D025E7009B002B04D12B68E8
:1054A000203B0793AB690693009B0133DBB200936B
:1054B000DBE72B0038223333002120001E780FF069
:1054C000C8FF2B6A28222362230031331A70069BFF
:1054D00076066362079BF60FA36223002C331E70CF
:1054E0003B687B60019B039A934266D001221900BE
:1054F0002000FFF7C0FC051E00D1F3E603787F2BE8
:1055000000D9EFE6202200210FF0A3FF019B002B22
:105510002CD1220085332B70039B3032013BDBB250
:1055200013706B70274B1B68002B16D008AA961DB2
:105530003100033209A8984708AB9B88AB721B1255
:10554000EB7233882B721B126B7208ABDB782B75F6
:10555000019B0133DBB20193C4E721225823AA72D5
:10556000EB72AA73EB73AA74EB74F1E7019B012B46
:1055700011D1BF332B70019B059A6B7080235B4266
:105580001343220033321370FB68EB703B8A2B719C
:105590001B126B71DCE7C12300212B70AB1C203583
:1055A0007A68B8688242D3D0501C786012785970FB
:1055B0001A700233AB42F3D1CAE7200000F008FAB8
:1055C000049011E718100020F0B597B00192512215
:1055D0001F00002308AE6A44137073860300313342
:1055E0001B7804000D00002B02D0002017B0F0BD86
:1055F0000B0031331A7850231A42F6D0019B1B78E6
:105600002F2B13D1019B1A782F2A02D1013301933A
:10561000F8E7296A002A03D12000FFF753FCE5E7E9
:105620003000FFF74FFC0028DFD035002000019943
:1056300001AB03AAFFF75CFC0028D6D0019B1B78C6
:10564000002B10D000232900200003AAFFF7F6FD4D
:105650000028CAD03422210030000FF0DEFE2000E6
:10566000FFF725FCE1E73B002900200003AAFFF734
:10567000E5FDBBE710B504000020814205D089207C
:10568000C00009182000FFF79FFF10BD13000200A3
:1056900070B531321478002294420ED10A003132B2
:1056A0001678502532002A402E4206D022000C687F
:1056B000E40602D1FFF7C2FD0200100070BDF0B594
:1056C00087B00D00002241690369684605AC027588
:1056D0001E000A22002330000F000CF0C1FE320031
:1056E000303294460A22030050436246013C101AAD
:1056F0002070002FECD1092EEAD82300202102AA25
:10570000934202D9013B1970FAE70023944200D377
:10571000131BE418200010F0CBFA2B6802002100C4
:1057200028005B68984707B0F0BD0300F0B531333F
:105730001B7806000F001C0087B0002B36D0022516
:105740000024330030331B78AB422FD300222900D2
:105750003000FFF790FB002827D00378C12B24D11D
:1057600000210230CBB2019343781B029C46624673
:10577000037813431AB29446002B0DD07E2B01D927
:105780003F239C46624602AB5A5401310134023039
:105790000F29E7D10F2301933B6838005B68019A1A
:1057A00002A901359847EDB2CBE70024200007B0ED
:1057B000F0BD70B50200057800230800012403261F
:1057C0004108C0030843D15C401880B22100012B7E
:1057D00002D1852D00D131005B181F2BF0D970BD8F
:1057E00010B5040002F093FC002801D1002010BD88
:1057F00084239B00E01802F08AFC0028F6D088235E
:10580000DB00E05802F0BDF9F1E78169F8B50B0063
:105810005A1E934104000122006AC91800F050FB8F
:105820000500012802D800263000F8BD0123010040
:105830001A00206A00F0A6FB061EF4D02000A16921
:10584000333040220378002903D113430370A5614C
:10585000EAE7134211D00131A942F8D09343037013
:10586000E169A369206A8B4207D94F1C3A0000F016
:1058700065FC0028D7D03900F3E701222900206A0F
:10588000524200F05BFC0028CDD0A1690029DED097
:105890002A00206A00F052FC0028D8D1C3E700009B
:1058A000F7B5002705003E00002239002800FFF769
:1058B000E2FA041E4DD00378C02B51D0C12B2CD05E
:1058C000852B46D12B00372231331B7813400371CF
:1058D000002343713D4B1B68002B17D06A46694675
:1058E0000332063101A898476B46DB7863756B4637
:1058F000DA889B88D1B2D8B2120A1B0A217362736C
:10590000A073E37321746274A074E374842201238E
:10591000296A9200885C03438B5431002000FFF712
:1059200048FF2B00303301371B78FFB20600BB4223
:10593000BAD229000122286A243100F07FFB002816
:1059400007D033128670C370286AFFF749FF00281A
:1059500005D10123002032352A7813432B70FEBD78
:105960002B004278333302201978130083433E30F2
:10597000014201D00223134363702A696B69110A43
:1059800022726172110C120EE2721A0A2373627390
:105990001A0C1B0EA172A273E373EB691A0A23752A
:1059A00062751A0C1B0EA275E375AA68EB68110AE2
:1059B00022766176110C120EE2761A0A237762774C
:1059C0001A0C1B0EA176A277E3779FE71810002030
:1059D000030010B531331B780400002B01D10120E6
:1059E00010BD03000021333359561A78002905DA17
:1059F0007F210A401A70FFF753FFF1E7006AFFF7B3
:105A0000EFFE0028EBD101233234227813432370B8
:105A1000E6E70000F0B5060031363378040085B0C3
:105A20005B060ED5006A00F075FC2B4B226A0293D0
:105A3000D25880188022D204904204D3002005B0AE
:105A4000F0BD8068F1E72000FFF7DFFE0028F5D009
:105A5000216A224AA369885C023B83408027002593
:105A60001F4803920958BF005B1801930122206A66
:105A7000039BC35C9A40AA420FD9019B0522591986
:105A800084239B00C01802F066FB0028D6D03A00A1
:105A900000210FF0DEFC0135E8E7327840231100E9
:105AA00019401A4214D1220033321578C03B2B43DF
:105AB00013700B00029D4259A068E168801859419B
:105AC000A060E1602069616912184B412261636145
:105AD0002000FFF77DFFB2E73C0400004504000012
:105AE0002C040000F0B5070033373B78040085B084
:105AF0009A0702D4002005B0F0BDC5690120002D31
:105B0000F9D040221900A6691140134233D0012078
:105B10004042C117236A0193A268E3688018594183
:105B2000234B019AD25C0932D2B20CF015FC421C14
:105B3000002E15D0013D731CAE1B03939219002A51
:105B400011D122686368A260E360226163618023EF
:105B50003A785B42134320003B70FFF739FFCAE7F6
:105B60000395E661EBE700230399019800F00AFA38
:105B70000028E6D1BEE7002E17D00391206A31003D
:105B800003AA00F07DFA0028B4DB07D00122A16946
:105B9000206A524200F0D2FA0028ABD003990029C3
:105BA000CFD0206A00F0F2FAE2E70395E661F5E76C
:105BB000450400000300F0B533331B7887B00400C0
:105BC000019102929A076CD51B0764D4029F256845
:105BD0006368002F00D1F7E0236A9C468723624662
:105BE000DB00D3581D40EA05D30D0093002D20D1D2
:105BF000A669002E6AD022003332127853065BD594
:105C0000A068E168E369039301225242D317801828
:105C100059416346784A9A5C0932D2B20CF09CFB37
:105C2000039B1B18B34244D82000FFF7EEFD002869
:105C300037D0206A704B009AC35C9C466B0A039372
:105C4000A369991E63469940039BC9186B4BC358BF
:105C5000C91880239B00002A45D19F4243D31833A3
:105C6000C258E933FF339F4200D38FE084239B0067
:105C7000C318914206D18422009D920085540122CE
:105C800052429A60019A586802F0E9F9002808D057
:105C90008026B60056E002694369FFF75DFA0028E6
:105CA00094D10123323422781343237000230293CA
:105CB0009EE00136A661BCE7220031006046183242
:105CC00000F0DEF90028ECDBAED0B2E7E369002B90
:105CD00007D12000FFF799FD0028E2D0A369E36116
:105CE000A7E7A361A5E7009A3E009B1A9F4200D94F
:105CF0001E00009B0122002B09D1626963689A4251
:105D000042D803D12369226893423DD805228423D7
:105D10009B00C01802F01FFA0028C2D0009B32007E
:105D2000C01801990FF079FB009BF21880239B00AB
:105D30009A4207D18422236A9200981802F0E7F968
:105D40000028AED020686168002304960593049A69
:105D5000059B12184B4101992260636089190191DA
:105D60006169BF1B994205D300D030E72169914298
:105D700000D32CE7200080213330057849422943A5
:105D800001702261636122E70122C0E765460123B9
:105D9000AB40039D7E0A5B1BB34200D933005E0219
:105DA000914209D8CD18954206D984220025920047
:105DB0008554013D821895608422920080184068C5
:105DC000019A02F022F9BBE7E2689A4203D30BD1B1
:105DD000A268AA4208D2A560E36080233334227807
:105DE0005B421343237003E0054B1B68002BF4D187
:105DF000029807B0F0BDC046450400002C04000026
:105E00001810002070B505000C00081E07D00FF018
:105E10004FFF2B680200210028005B68984770BD87
:105E2000F0B595688C1C2031637820781B02566889
:105E3000184303B2B54203D143425841C0B2F0BD4A
:105E4000771C576036787E2813D8300061381928BF
:105E500001D8203EF6B2DBB218006138192801D80B
:105E6000203BDBB2B34204D10234A142DCD1012099
:105E7000E5E70020E3E7002330B50D6888684D6052
:105E80004A68824212D0541C4C6014782200613A55
:105E9000192A01D8203CE4B25A08DB031A4312192C
:105EA00093B25B08D20313439BB2E9E7421B0B8218
:105EB0000020FE23CA60013A93424041C0B230BD87
:105EC000F0B587B00700029103928D1E002902D120
:105ED0008423DB00C5588622D200BB5801249D4292
:105EE0009B411D402B05DB0D019307232B409C405C
:105EF0002E00E4B200950592214A330BBA583800BF
:105F00009918002202F027F9002816D001239C4698
:105F1000019BC35C01361C4211D10099039A711A8E
:105F200091420DD1029B002B05D1012A03D184237C
:105F3000009ADB00FA500098023007B0F0BD0096DE
:105F4000B5421AD0059ABA580492B2420ED96400EA
:105F5000E4B2002CDED10022019B019280220133A9
:105F6000644692009342C7D20193D1E780239B00FD
:105F7000019300231E000093EDE70120DDE7C046FA
:105F80002C040000F0B5023985B0170003938B187C
:105F90008622D20082580500934247D88420039E6F
:105FA000C0002C58002E3DD0A14205D8A34203D9F1
:105FB0009342924113402B50072301260B409E40F1
:105FC0001D4B0A0BEB580905D3180193CB0DF6B204
:105FD00002930122019928008B18019302F0BBF86B
:105FE000002823D00121029B8C46C21833001E00DA
:105FF00011780E40741EA641039CA64216D059404B
:10600000013F1170002F14D05B00DBB2002BEED1EA
:1060100080240132029366466346111AA400A1420D
:10602000E5D1D6E7A142C7D22950C5E7002005B087
:10603000F0BD0120FBE7C0462C040000872370B5AB
:106040000C00DB00C15863680B4D19402368455DA7
:10605000023BAB40490AC918084BC358C9188423EE
:106060009B00C01802F077F8002803D06368DB05B6
:10607000DB0DC01870BDC046450400002C040000B4
:106080008623DB00C35870B501330C0015008B422A
:1060900002D20120404270BD0B4ACB0982589918A8
:1060A00084239B000022C01802F055F80028F0D08D
:1060B0006406E40D0019FEF7BDFE030000205A1C23
:1060C000E9D02B600130E6E72404000037B5050075
:1060D000002401912800019901AAFFF7D1FF0028AF
:1060E00004DB01340028F5D120003EBD0024FBE78D
:1060F00070B54B680D008721C900445806001C404C
:106100009B186B600C4BA418C35C0933DBB2DC40FA
:10611000002C0ED02B7A2968002B03D00131296086
:10612000013CF5E72A003000FFF7AAFF0128F7D06D
:1061300070BD0120FCE7C0464504000070B50C00AE
:106140001500012901D8002070BD8623DB00C3584B
:1061500001338B42F7D30C4ACB0982589918842318
:106160009B000122C01801F0F6FF0028EBD0640666
:10617000E40D00192B0A057043702B0C2D0E837053
:10618000C5700120E0E7C04624040000F0B5060019
:106190000C000F0085B02100300003AAFFF770FF4C
:1061A0000190002803DA0025280005B0F0BD002288
:1061B00021003000FFF7C2FF051EF4D0019B01341F
:1061C000002B02D0039BA34208D0002339003000EB
:1061D000E21BFFF7D7FE0028E5D0039F019B039C3D
:1061E000002BD8D1E0E70000F7B5150088220400A5
:1061F000080000211E003F4BD2008427E154A0502C
:106200000122BF005242E71960602170A2607860ED
:106210008420800021540193BA608D4219D0042D4E
:1062200001D90020FEBD0A00380001F094FF0028CB
:10623000F7D0314BBF30ED18FF302D0140190379F5
:10624000002BEED003785B06EBD10830FEF7F2FDB1
:10625000060000223100380001F07DFF051EE0D06D
:106260000522264903300FF02AFD071ED9D12B0045
:106270006C331B78092BD4D128005030FEF7DAFD9F
:106280001F4B8019E05028005430FEF7D3FD8523C2
:10629000DB00E05028005830FEF7CCFD86192800BE
:1062A000184B5C30E650FEF7C5FD8623DB00E0505E
:1062B00028006030FEF7BEFD134B6D35E0502B78A3
:1062C0000125124A3900A3542A0009339A401300C9
:1062D0000F4A2000A350013B043AA3508423DB0063
:1062E0002A00E750FFF7ECFD4023019A2800A35451
:1062F00098E7C04644040000FFFFFF0F70930100C1
:10630000240400002C0400003404000045040000B4
:106310003C04000010B50400044BC158FFF7D6FE42
:10632000034BE35C0933DBB2984010BD340400003A
:106330004504000010B50400243001F0E8FE0028F8
:1063400001D1002010BD8D239B00E01801F0DFFE7D
:106350000028F6D0206801F014FCF3E710B5814264
:1063600006D0030015C915C315C915C315C915C332
:1063700010BD020070B50569040029008068103264
:1063800001F0B6F800280AD0A378002D08D14022E9
:106390001343A3708023A2785B421343A37070BDA4
:1063A00022690135AA42F5D040229343F1E700006B
:1063B000F7B502784023150004001D401A4202D0B0
:1063C00000263000FEBD174B42699A42F8D8FFF70D
:1063D000D0FF061EF4D0A26823699179023B8B405E
:1063E00080275269BF009B180193A0680379AB42D4
:1063F0000ED9019B0522E918243001F0ACFE0028DB
:10640000DED03A00002101350FF023F8EDB2ECE7C1
:10641000802382799B04934062691B0CD3186361CB
:10642000CFE7C046FFFD1F0010B5040080680A00DA
:106430002430A16901F08FFE002804D00F22A38828
:1064400013405B01C01810BD70B50025037804002F
:106450000E00AB4209D1242229000EF0FAFFA660FB
:10646000F379102B03D0202B06D0280070BD4023D9
:1064700001252370A570F8E78023F9E7CB6870B594
:1064800004000D00002B03D18968FFF7DDFF70BD0C
:10649000242200210EF0DDFF102301202370A070C4
:1064A000AB68A360EB682362F1E7F0B5837887B04F
:1064B000040004910392DB076DD503781A0732D5E7
:1064C000C36942699B1A039A9A4200D90393039BBA
:1064D000019300230593019B002B00D1A2E04021F2
:1064E00062692378D705A068FF0D550A0B4223D0B7
:1064F000036A8026ED18A368B6000293002F51D1DD
:10650000019BB3424ED3029BDA6A95424AD0802364
:106510000199DB00994261D2029B2900049A986A92
:1065200001F06EFD71E05B06D1D5836842691B897D
:106530005B019B1A9BB2C6E741790D400595002F80
:1065400008D1002D06D1002A0FD15BB2002B0ADA48
:10655000036A2361A3682269951E9A795B69954055
:10656000ED18059BC5E7236AF3E70822216913426A
:1065700006D0A3783832134202D001312161E9E715
:106580002200103200F03DFF002804DBE2D12F2270
:106590002378934346D1022301206278404213437B
:1065A000637042E0F31B019E9E4200D91E000298D8
:1065B00000222900243001F0CEFD0028EBD0C119C3
:1065C000320004980EF029FF049B9B190493636921
:1065D0009B196361019B9B1B01937CE74021019BFD
:1065E0005F0A23780B4206D1029B05991B795B1A3F
:1065F0009F4200D91F007E02954209D902983B00B4
:106600002900049A806A01F0D1FC0028DCD1C2E79D
:10661000EB199A42F2D20298243001F078FD00285A
:10662000ECD1B8E7039B019A981A07B0F0BDF7B513
:106630006B46DF1D01223900040046690569FFF73A
:1066400034FF012803D1387866612561FEBD012041
:106650004042F9E7436937B5DD0504002D0F01D04D
:10666000002912D16B4601222000D91DFFF71DFF22
:1066700040B2012801D000203EBD63691F33A068ED
:106680006D01343063614019F6E72033F7E7F7B561
:1066900003690400019303780D00002B13D04069B7
:1066A0000122884208D0002908D121612022A37844
:1066B00065619343A3701F3A1000FEBD1A0706D50B
:1066C000E2698A420BD2019B00222361F4E75A0659
:1066D00005D5A3681B895B018B42E7D2F3E7A1686C
:1066E000A7788A796E1E0932D2B2D6407F0603D5CA
:1066F000236A9E192661D9E7471ED740BE4201D3BF
:10670000002812D15BB2002B0DDA0B6A2361002E38
:10671000CCD022002169A068103200F072FE013E48
:106720000028F4DCCFE7236AF0E7F61BEFE7F7B5C4
:106730000F0004001E0008AB1B7815000021242266
:1067400001930EF086FEB8683B6A0F22E3600300F7
:10675000A580154034336D01A0605D19EB7A073ACE
:10676000134247D137210B402370EF7A1F390F4274
:1067700001D113432370019B0322E37033001340C4
:10678000012B31D0022B06D0002B33D1730531D42D
:106790000123A37000E0A270A1788B0707D52378AE
:1067A000DA0627D4DA0725D420221A4322700823D8
:1067B00033400B43A370C36AA3616B7D297D1B0229
:1067C000EA7E1943AB7E1202090413431943730591
:1067D00014D500290AD18023A2785B421343A37009
:1067E000730418D40120FEBD0223D2E700F0BEFEE0
:1067F0000028F0D100202070A070F4E721626A7FA9
:106800002B7F12021A43AB7F1B041A43EB7F1B063C
:106810001343E361E4E72000E169FFF738FF002854
:10682000E0D1E7E7F0B5037887B006000D000592E8
:10683000002B46D12F220B78934342D04A691F2365
:1068400014001C401A423CD1082703946B690021B4
:1068500028000493FFF7FEFE002832D00278002AB9
:106860002FD02E2A21D0E52A1FD0C17A0B003B4021
:1068700039421CD1002C0DD002000B325908DB012B
:106880000B43017801305B18DBB28242F6D1039AE8
:106890009A4216D1049B29005A093000059B92B2F6
:1068A0000094FFF744FF07B0F0BD0024CEE70F29A6
:1068B000FBD140231A42C9D01F24437B14400393C9
:1068C000C4E70020EFE70000F7B5037805000120DA
:1068D000002B0DD0AB787F2B40D901002800FFF7AB
:1068E000A3FD041E05D1012300206A7813436B70B9
:1068F000FEBD0378E52BF6D037222B781340C37208
:106900002B781B0707D5EB691A0A037742771A0C15
:106910001B0E8277C3772B6AA3761B12E3762B6A52
:106920001B0C23751B1263750F4B1B68002B11D0BA
:106930006A4601AF961D31000332380098473B8804
:10694000DAB21B0A6376E37433882276A3751B12CE
:10695000A274E3757F22AB781340AB70A868FFF791
:10696000E9FC0028BFD0C3E71810002010B50400D0
:10697000FFF7AAFF00232370A37010BD70B594B079
:106980000D001E002E21002301926A4693855218A5
:10699000137003780400002B02D0002014B070BDE7
:1069A0002F222B789343F8D0019B1B78934213D16D
:1069B000019A13782F2B02D101320192F8E7A968CE
:1069C000002B03D12000FFF73FFDE7E70BA8FFF7FF
:1069D0003BFD0028E1D00BAD2000019901AB03AADB
:1069E00000F0E6FB0028D8D0019B1B78002B0FD0CD
:1069F00000232900200003AA00F0A0FA0028CCD030
:106A00000BA82100FFF7AAFC2000FFF7AFFFE2E789
:106A100033002900200003AA00F090FABEE700002E
:106A200010B504000020814204D00348091820005A
:106A3000FFF7A4FF10BDC04644040000F7B58378FB
:106A40000400009101929A0707D51B070CD46369D3
:106A5000019ADB431600934258D201236278134314
:106A6000637000230193B6E0C169FFF710FE0028B0
:106A7000EDD1F2E722006046103200F0C2FC00289F
:106A8000EBDB5FD12000FFF774FC00285AD1E4E76C
:106A9000236A002B07D12000FFF76BFC0028DCD015
:106AA000236923624EE023614CE080239B00370082
:106AB0005B1B9E4200D91F000122002D0AD1636991
:106AC00004329C46E3699C4504D2A378043A9B06B1
:106AD00000D50432243001F03EFB0028BDD040191F
:106AE0003A0000990EF099FC80237D199B009D428D
:106AF00005D1A068243001F00AFB0028ADD06369FD
:106B0000F61BDB196361009BDB1900936369002EA0
:106B100053D0A268DD059446614649795A0A0F00B0
:106B2000ED0D174011420DD1002D0BD12169002927
:106B3000AED04020A27802429CD0E2699A4299D914
:106B400001312161A0682369991E837999404369C5
:106B5000C918C919002DA8D180239B009E42A4D337
:106B60008023C26ADB009E4210D2914204D1431DB1
:106B7000DD7701235B42C362009A806A01F06FFAFD
:106B8000002800D169E78027BF00B8E70379750ABC
:106B9000DB1BAB4200D92B005F02914208D8CD1815
:106BA000954205D90025421DD57701225242C26285
:106BB000009A806A01F029FA9FE7E2699A4206D2B8
:106BC000E3618023A2785B421343A37003E0034B8D
:106BD0001B68002BF5D10198FEBDC046181000209F
:106BE0000100030000200B314208C00110431A7855
:106BF00001338018C0B28B42F6D1704710B54901FD
:106C00000400FFF744FD0021884203D02000FFF775
:106C100021FD0100080010BDF0B58FB0029105A95B
:106C2000039314000B000200019023CA23C323CA5C
:106C300023C323CA23C3012523686360039B9D42AA
:106C400033D8029B05A8591B89B2FFF7D7FF071E4F
:106C500002D100200FB0F0BD0026320039000198AB
:106C600000F008FB6368A2689A4203D1434258418E
:106C7000C0B2EFE77F28ECD8C0B20200613A192A0F
:106C800001D82038C0B25A1C62601B781A00613AE1
:106C9000192A01D8203BDBB28342DAD10136F6B2A1
:106CA0000D2EDAD10135EDB2C8E70120D2E70000A0
:106CB000F0B58FB0150005AA01931300029116C814
:106CC00016C316C816C316C816C3280001241230EE
:106CD000FFF786FF002627002B6803906B60019B5F
:106CE0009C4243D8029B05A8191B89B2FFF786FF77
:106CF00000283CD0079B0533DA7F3A43DA77019AC4
:106D00002300944201D14023234303700F23C37215
:106D10000023039A037342738376C37601306A6853
:106D2000A9688A4211D1002E13D00136114AF6B259
:106D30001112042B10D8027041700133DBB2023003
:106D40000D2BECD10134E4B2C9E7511C6960127813
:106D5000EEE732003E00EBE7D2B2C9B20A2B02D80E
:106D6000C2700171E9E742718171E6E701200FB05D
:106D7000F0BDC046FFFF0000F0B5836885B0039307
:106D8000030020240200016812331D301C700133FF
:106D90008342FBD108782E38431E9841C0B20B784D
:106DA0002E2B01D10131FAE7039B013B0193019B9B
:106DB0008B4204D91B782E2B01D0019BF5E70723CA
:106DC00000259C4601332C001F000295039B99422D
:106DD00051D20B782E2B08D1019B8B4212D10A2362
:106DE0009C46063308261F001EE0222B0AD07C2B6F
:106DF00008D01E005B3E022E04D93136052E06D87F
:106E00002D2B14D0644514D800205F2322E01E00EF
:106E10003A3E052E02D919365D2E08D93F202600AC
:106E200083430020802BEDD134000131CEE764454F
:106E300009D963460A2B1DD0019B8B421AD3260029
:106E40000020591EF0E71E00613E192E0AD8203B93
:106E5000DBB23D43661CF6B21419A374062EE3D8C8
:106E60001674E1E71E00413E192EF3D8029E3E4300
:106E70000296EFE70020937C202B11D0002806D04B
:106E8000029B1D4200D00225557405B0F0BD0120C3
:106E9000137C5074D2187E2393744D3BD374F4E763
:106EA0000020F2E76223F7B507000D0000260C7CF6
:106EB000019309F07DFB3618B6B2231C032C00D9D0
:106EC0000323DCB2231DDBB20F2232401100373125
:106ED000092A01D830321100EA18013BDBB2917463
:106EE00036099C42F0D17E222B19002138009A7479
:106EF000FFF7CDFB01213800FFF7ACFB011E04D1E9
:106F0000787843425841C0B2FEBD0378002B12D0BE
:106F10000822C37A1342EDD12800033212300EF05A
:106F20006EFA0028E6D101980138C3B20193002B14
:106F3000BFD11800E8E70120E6E70000F0B5150032
:106F40002F228FB006930B780F000B90934302D142
:106F500000200FB0F0BD0B9B1B78002BF8D1E86828
:106F60000D210C300BF082F80122C3B209936B7C27
:106F700004929B0703D0099B9B18DBB20493BB6868
:106F8000002138000A93FFF782FB00231E001C003B
:106F9000089302930793059314E00123FBE703781A
:106FA000E52B01D0002B41D1002E01D1039A07928D
:106FB000049A964201D20136F6B2002B0FD0E52B8F
:106FC00038D100247B69380059098BB20021039322
:106FD000FFF740FB0028E2D17B78002BB8D1069B5D
:106FE0009B05B5D50323069A1340013B012BAFD86F
:106FF000002E01D1039B0793049B9E4208D20021DF
:107000003800FFF727FB002873D17B78002B9FD136
:10701000049BB6B2B3426FD93800FFF7C9F9002814
:1070200096D00A9B1B791B01F618F1E7049A964249
:1070300000D200262E2BC4D0C27A0F2A2BD1002CCE
:107040001ED110321A4002920299099A8A42B9D18D
:1070500040221C0014401342B4D0437B099C089387
:10706000029B012BAED10399230001312A00380085
:1070700089B2FFF7D1FD431E984140420440A1E789
:10708000029A013AD2B2029293429AD1437B089A71
:107090009342E5D095E708231A4292D1002C0BD0F9
:1070A000029B012B00D053E7FFF79AFD089B984203
:1070B00000D04DE705940FE029000B2212310EF0AD
:1070C0009EF9002800D07DE701226B7C1A400592D2
:1070D0000122134200D060E7069B1B0500D537E76D
:1070E000059B39000093039A069B0B98FFF71FFB43
:1070F0002FE70136F6B27FE7059B002B46D1049BB4
:107100003800013BDBB20593059A079B9446634424
:107110009BB20393039913002A00FFF7C9FD0028CF
:1071200000D115E738000399FFF768FD041E00D170
:107130000EE7202200210EF08CF929000B222000FE
:1071400012310EF06AF918226B7C13402373174B2F
:107150001B68002B21D00B250E260AAAB618AD18E5
:107160002A0031000DA898470AAB9B8923741B1293
:1071700063743388A3731B12E3732B786373012248
:107180000A9B0533D97F0A43DA77A9E7290038003B
:10719000FFF788FE0028B2D1DAE6212258232274B4
:1071A000637422766376A274E374E8E71810002013
:1071B000F8B50878202801D10131FAE70020D06025
:1071C00040300C0084461C4E11602578002D20D0E4
:1071D0002F2D1ED02800203801345F282AD80238ED
:1071E000C0B21D2806D83700C740380001278743A2
:1071F000381E1ED028006746B8433C281AD05C2DA4
:1072000018D0601A2E2DE0D0202DDED0D0609460F2
:10721000DBE7D16800200139FE290AD8217820292E
:1072200001D02F2901D10134F8E710001C60FFF7CD
:10723000A3FDF8BD0020FCE70101003130B50C00D2
:10724000C1690E20002385B001AD6844AB7200F027
:107250003BFF2023A84202D901380370FAE7280037
:107260000EF026FD23680200290020005B68984785
:1072700005B030BD042A07D80131520089184B7877
:1072800008781B02184370470A2A02D80E31053AC3
:10729000F3E700200C2AF6D80B000B3A1C33510000
:1072A0005918ECE7F7B504780D001600002C3BD018
:1072B0003F239C4307D0012A36D9103B0B70002393
:1072C00001204B70FEBD2100FFF7AEF800282BD047
:1072D000220008270190019B1B78082A0AD1202B45
:1072E0001ED010272E2321000134B4421CD2E4B258
:1072F0006B5411E0019901310191412149428C46C1
:107300009C446146192905D8017B3942EBD02033D2
:10731000DBB2E8E7202BE6D10132D2B20C2ADAD177
:10732000002320002B55CDE700202870CAE71FB5A9
:107330000C000D226946FFF7B5FF002808D068460B
:107340000EF0B6FC23680200694620005B6898478F
:1073500004B010BDF0B5002793B004AB9F829F75B9
:10736000037804000E00BB4245D0C378BB4205D170
:10737000FFF7DDFF0700380013B0F0BD010009A8DA
:10738000FFF77CF8002836D0012302936B461D7A64
:10739000E378AB42EFD3A188029B09A8C91A89B24E
:1073A000FFF72CFC0190002825D0C37A0F2B22D1A7
:1073B0001F2203781340AB421DD10025EBB2200001
:1073C0000199EAB20393FFF755FF002809D07E2800
:1073D00000D93F2005AB5855013501370D2DEDD1B2
:1073E0000395336830005B68039A05A99847029BB0
:1073F00001339BB2C9E70027BDE710B5FFF7AAFF2D
:1074000010BD70B505000C001600012902D801203E
:10741000404270BDC3698B42F9D3C379202B17D189
:107420008369C909C9188D239B000222C01800F086
:1074300092FE0028EBD06406E40D0019FDF7FAFC7B
:107440000300EA6900209A42E3D333600130E0E7A9
:10745000102BDCD18369090AC9B2C9188D239B009E
:107460000222C01800F077FE0028D0D02406E40DD8
:1074700004196078237800020343E2E770B50C003A
:107480001500012901D8002070BDC3698B42FAD3D1
:10749000C379202B16D18369C909C9188D239B0094
:1074A0000322C01800F057FE0028ECD06406E40D5B
:1074B00000192B0A057043702B0C2D0E8370C570BC
:1074C0000120E1E7102BDED18369090AC9B2C9188E
:1074D0008D239B000322C01800F03DFE0028D2D06F
:1074E0002406E40D041925702D126570E8E70000EC
:1074F000F0B5C46885B005000E00012701928C42EA
:1075000001D20C000027EB690134A34204D2002F02
:1075100019D1EC680137F6E7A64214D02100280003
:1075200003AAFFF76EFF00280DDBECD0039B002BB6
:10753000E9D1002F00D0EC60210028000A4AFFF7B3
:107540009DFF071E03D10027380005B0F0BD002EB7
:1075500002D1019B1C60F7E7220031002800FFF7F1
:107560008DFF0028F5D1EEE7FFFFFF0F73B5050093
:107570000C002100280001AAFFF743FF061E0FDBC5
:10758000002221002800FFF779FF002808D0EB68CF
:10759000A34201D9013CEC60019C002EE9D176BDEB
:1075A0000020FCE7F7B504001E000123216008005D
:1075B0000021E360631DA062E171D9778D2317007C
:1075C00001229B005242E318E26258608D202500A0
:1075D0008000215424359A608F4219D0042F01D99C
:1075E0000020FEBD0A00280000F0B5FD0028F7D0FD
:1075F000404BBF30FF18FF303F01C0190379002B0B
:10760000EED003785B06EBD10830FDF713FC0600E3
:1076100028000022310000F09EFD051EE0D0010090
:10762000037C0B31022BDBD1027BC37A12021343A2
:1076300080221BB292009342D2D1897809204B1E3E
:10764000637100232171A3710133994208D001387D
:107650000028C5D0A2795B000132A271DBB2F4E749
:10766000EA7DAB7D12021343236104D1280024304C
:10767000FDF7E0FB2061EA7BAB7B120213439B1911
:10768000A361A97C6A7C09020A4327691A492281FD
:10769000520178005218C318520A2362D31863614A
:1076A00001932B7DE87C1B02184303D12800203076
:1076B000FDF7C0FB019BF61AA3793618DE40731C58
:1076C000E3610E4B9E4202D80C23E37188E70C4B1A
:1076D0009E4207D81023E37190239B00276301206B
:1076E000E7507EE728002C30FDF7A4FB2023206222
:1076F000F1E7C046FFFFFF0FFF010000F40F00009D
:10770000F4FF0000F8B504000D00814216D00026F9
:1077100086638F6BC663B74211D00100242000F04E
:10772000B1F806808670A063AB6B834206D002007E
:1077300013CB13C213CB13C213CB13C2F8BDCB6B45
:10774000002BFBD00100382000F09CF803003133FF
:107750001F704786E063E96B8842EFD034220DF05A
:107760005CFEEBE710B50C00814204D0FFF7CAFFC6
:107770000023A363E36310BD10B50400806B0028F1
:1077800005D0FFF7F3F80023A363E36310BDE36BB9
:107790000120002BF7D01800FDF789FBF3E700006C
:1077A000F7B504000D0016001F00002901D10020CC
:1077B000FEBDFFF7E1FF9023DB00EA580092002AAC
:1077C00014D02100242000F05DF8002390210380D4
:1077D0008370C9003B0032006958A063FFF720F9AD
:1077E000002801D00120E3E7A063E1E70C4BEA5851
:1077F0000192002ADBD02100382000F043F803007A
:10780000009A313306491A7042863B0032006958AB
:10781000E063FDF72FFF0028E4D1E063C8E7C0462E
:1078200084040000F8B50E0005001700FFF7A4FF60
:10783000B46B002C12D02900242000F023F8002380
:1078400003808370A8633A00B16BFEF7EBFF041E60
:1078500002D001242000F8BDA863FBE7F36B002BE6
:10786000F8D02900382000F00DF8030031331C70E7
:107870004486E8633A00F16BFDF708FF041EE8D187
:10788000E863E7E708007047F0B5050090200026A0
:1078900085B0C00000912E50290002920193FFF79D
:1078A000F1FF8423012284219B00C31852428900E6
:1078B0004660067082605E6046549A60334B344F77
:1078C000C318C6551E70334B019AC652324E0A9BDE
:1078D0000099A8510400FEF787FC0396002811D0F8
:1078E0008923DB00E6183000FDF7E1FA21003000C3
:1078F000FDF7E8FA002805D0284B1A68002A33D192
:107900001C6031E000268D20039B2900EE50C00052
:10791000FFF7B8FF431DC6718662DE778D23012213
:107920008D219B005242C3188900C2625E6046549A
:107930009A60174BC653C7183C33BE70019AE85083
:1079400000990A9B0400FFF72DFEB04217D03800C3
:10795000FFF70CF821003800FEF776FDB0420ED09C
:107960000F4B1A68B242CBD0029A0E4B002A03D1B9
:107970001A680120002A06D101201D6003E090232F
:107980000020DB00E85005B0F0BDC04679040000DF
:10799000440400007A040000840400000C1000205D
:1079A000101000201410002070B50400002060604A
:1079B000A064E0640548FA2520602000AD00A560C1
:1079C0001030FFF7EDFE200070BDC046908F010023
:1079D00010B5FF210068FCF715FE10BD10B500685A
:1079E000FCF710FE10BD70B5C57B0400002D0ED154
:1079F000416882680068FCF7D5FD01232900607B9F
:107A0000E37300F03CFBFF212000FFF7E7FF70BDB0
:107A100010B5C37B0400002B0CD00121407B00F08B
:107A20002EFBFF212000FFF7D9FF2068FCF7D6FDD1
:107A30000023E37310BDF8B504000D00160008F034
:107A4000B7FD2D30FF3087B22000FFF7C1FF607413
:107A5000FF280BD108F0ACFD381A0304F4D51E231F
:107A60002000A373FFF7D4FF0020F8BDAE19FE2855
:107A700001D01923F4E7AE4206D0FF212068FCF7BD
:107A8000C1FD28700135F6E7002320006374FFF77D
:107A90009FFF2000FFF79CFF0120E6E7802210B542
:107AA0009200FFF7C8FF10BD70B50C00050008F08C
:107AB0007FFD2418A4B22800FFF78AFFFF2806D014
:107AC00008F076FD201A0304F5D5002070BD0120D2
:107AD000FCE770B515000400FFF780FF80239B00D2
